:100000000C942A000C943F000C943F000C943F0089
:100010000C943F000C943F000C943F000C943F0064
:100020000C943F000C943F000C943F000C943F0054
:100030000C943F000C943F000C943F000C943F0044
:100040000C943F000C943F000C943F000C943F0034
:100050000C943F0011241FBECFE5D8E0DEBFCDBF1A
:1000600011E0A0E6B0E0E0EEF6E102C005900D92EE
:10007000A23BB107D9F70E9407080C946E0B0C94B1
:100080000000A0E0B0E0E7E4F0E00C945108DC01EF
:100090002B01FA019C91923008F439C1EB0188815F
:1000A000823008F433C1943069F4843009F02FC1F0
:1000B00011969C9111978981981709F428C1A1E99B
:1000C000B0E025C1843009F421C18230A9F4923016
:1000D00009F01DC19A01AD0188E0EA010990AE0165
:1000E000E90109929E018150C1F7E20189811196CF
:1000F0009C918923818308C1923009F407C112962B
:100100002D903C901397EB018A819B811496AD90C2
:10011000BD90CD90DC901797EC80FD800E811F8103
:100120009101281B390BB90137FF04C066277727D7
:10013000621B730B603271050CF061C0121613065E
:100140006CF537014801062E04C096948794779485
:1001500067940A94D2F721E030E040E050E004C018
:10016000220F331F441F551F6A95D2F7215030408C
:10017000404050402E213F2140235123211531057D
:100180004105510521F021E030E040E050E07901E7
:100190008A01E628F728082919293CC0232BD1F128
:1001A000260E371E35014601062E04C0969487940C
:1001B000779467940A94D2F721E030E040E050E071
:1001C00004C0220F331F441F551F6A95D2F72150D8
:1001D0003040404050402A213B214C215D212115D7
:1001E00031054105510521F021E030E040E050E0CB
:1001F00059016A01A628B728C828D9280BC082153A
:1002000093052CF01C01AA24BB24650103C0EE2435
:10021000FF24870111969C91D20111968C91981719
:1002200009F445C0992339F0A80197012A193B091F
:100230004C095D0906C0A60195012E193F09400B26
:10024000510B57FD08C011823382228224833583EB
:10025000468357831DC081E08183338222828827B1
:100260009927DC01821B930BA40BB50B8483958328
:10027000A683B7830DC0220F331F441F551F24834D
:100280003583468357838281938101979383828349
:100290002481358146815781DA01C9010197A1097D
:1002A000B1098F5F9F4FAF4FBF4328F30BC09183BE
:1002B00033822282EA0CFB1C0C1D1D1DE482F58298
:1002C0000683178383E080832481358146815781AB
:1002D00057FF1AC0C901AA2797FDA095BA2F8170B0
:1002E0009070A070B0705695479537952795822BE2
:1002F000932BA42BB52B84839583A683B78382810C
:100300009381019693838283DF0101C0D201CD01E5
:10031000CDB7DEB7E2E10C946D08A0E2B0E0E3E90E
:10032000F1E00C945D0869837A838B839C832D8331
:100330003E834F835887E9E0EE2EF12CEC0EFD1E34
:10034000CE010196B7010E94EB048E010F5E1F4F94
:10035000CE010596B8010E94EB048A8991E08927B5
:100360008A8BC701B801AE01475E5F4F0E94410012
:100370000E941604A096E6E00C947908A0E2B0E092
:10038000E4ECF1E00C945D0869837A838B839C83B1
:100390002D833E834F835887F9E0EF2EF12CEC0E2E
:1003A000FD1ECE010196B7010E94EB048E010F5E87
:1003B0001F4FCE010596B8010E94EB04C701B8019A
:1003C000AE01475E5F4F0E9441000E941604A09656
:1003D000E6E00C947908A0E2B0E0E1EFF1E00C94E3
:1003E000510869837A838B839C832D833E834F835B
:1003F0005887CE010196BE01675F7F4F0E94EB04D4
:10040000CE010596BE016F5E7F4F0E94EB04998579
:10041000923088F089898230C8F0943019F48230A3
:1004200051F404C0843029F4923081F481E990E0E1
:10043000C6C0923049F420E09A858A89981321E059
:100440002A87CE010996BBC0823049F420E09A8504
:100450008A89981321E02A8BCE014196B0C02D8461
:100460003E844F8458886D887E888F88988CEE24CF
:10047000FF248701AA24BB24650140E050E060E02E
:1004800070E0E0E0F0E0C10181709070892BE9F04C
:10049000E60CF71C081D191D9A01AB012A0D3B1D26
:1004A0004C1D5D1D80E090E0A0E0B0E0E614F70494
:1004B0000805190520F481E090E0A0E0B0E0BA0161
:1004C000A901480F591F6A1F7B1FAA0CBB1CCC1C1B
:1004D000DD1C97FE08C081E090E0A0E0B0E0A82A13
:1004E000B92ACA2ADB2A3196E032F10549F0660CB6
:1004F000771C881C991C5694479437942794C3CF33
:10050000FA85EA892B893C898B859C85280F391FC0
:100510002E5F3F4F17C0CA0181709070892B61F028
:1005200016950795F794E79480E090E0A0E0B0E896
:10053000E82AF92A0A2B1B2B76956795579547953C
:100540002F5F3F4F77FDE7CF0CC0440F551F661F4D
:10055000771F17FD4160EE0CFF1C001F111F21507B
:100560003040403090E0590790E0690790E4790707
:1005700060F32B8F3C8FDB01CA018F779070A070E6
:10058000B07080349105A105B10561F447FD0AC042
:10059000E114F1040105110529F0405C5F4F6F4F34
:1005A0007F4F40781A8EFE1711F081E08A8F4D8FB1
:1005B0005E8F6F8F78A383E0898FCE0149960E946A
:1005C0001604A096E2E10C946D08A8E1B0E0EBEE11
:1005D000F2E00C945D0869837A838B839C832D837E
:1005E0003E834F83588789E0E82EF12CEC0EFD1EE8
:1005F000CE010196B7010E94EB048E010F5E1F4FE2
:10060000CE010596B8010E94EB048985823040F046
:100610008989823028F0C701B8010E94630501C0B2
:1006200081E06896E6E00C947908A8E0B0E0EBE1A0
:10063000F3E00C945A089B01AC0183E08983DA0152
:10064000C9018827B7FD83959927AA27BB27B82E0C
:10065000211531054105510519F482E089833AC01D
:100660008823A9F0203080E0380780E0480780E840
:10067000580729F460E070E080E09FEC30C0EE2481
:10068000FF248701E21AF30A040B150B02C079015B
:100690008A018EE1C82ED12CDC82CB82ED82FE82D3
:1006A0000F831887C801B7010E94C7030197181666
:1006B000190684F4082E04C0EE0CFF1C001F111F45
:1006C0000A94D2F7ED82FE820F831887C81AD90ADE
:1006D000DC82CB82BA82CE0101960E941604289653
:1006E000E9E00C947608ACE0B0E0E9E7F3E00C94C4
:1006F000610869837A838B839C83CE010196BE0156
:100700006B5F7F4F0E94EB048D81823061F18230FC
:1007100050F1843021F48E81882351F12EC02F8135
:10072000388537FD20C06E812F3131051CF06623DE
:10073000F9F023C08EE190E0821B930B29853A8566
:100740004B855C8504C056954795379527958A95C6
:10075000D2F76623B1F050954095309521953F4FE3
:100760004F4F5F4F0EC020E030E040E050E009C046
:100770002FEF3FEF4FEF5FE704C020E030E040E0B5
:1007800050E8B901CA012C96E2E00C947D08EF9282
:10079000FF920F931F937B018C0180E0E81680E0AD
:1007A000F80681E0080780E0180788F48FEFE81664
:1007B000F1040105110531F028F088E090E0A0E097
:1007C000B0E017C080E090E0A0E0B0E012C080E0B0
:1007D000E81680E0F80680E0080781E0180728F0B6
:1007E00088E190E0A0E0B0E004C080E190E0A0E00B
:1007F000B0E020E230E040E050E0281B390B4A0B2B
:100800005B0B04C016950795F794E7948A95D2F789
:10081000F701E756FF4F8081281B31094109510933
:10082000C9011F910F91FF90EF900895DF92EF9211
:10083000FF920F931F93FC01E480F58006811781DE
:10084000D1808081823048F480E090E0A0E1B0E087
:10085000E82AF92A0A2B1B2BA5C0843009F49FC073
:10086000823021F4EE24FF24870105C0E114F10455
:100870000105110519F4E0E0F0E096C06281738192
:100880009FEF623879070CF05BC022E83FEF261B30
:10089000370B2A3131052CF020E030E040E050E009
:1008A0002AC0B801A701022E04C076956795579516
:1008B00047950A94D2F781E090E0A0E0B0E004C050
:1008C000880F991FAA1FBB1F2A95D2F70197A1096C
:1008D000B1098E219F21A023B1230097A105B10565
:1008E00021F081E090E0A0E0B0E09A01AB01282B7C
:1008F000392B4A2B5B2BDA01C9018F779070A070DE
:10090000B07080349105A105B10539F427FF09C005
:10091000205C3F4F4F4F5F4F04C0215C3F4F4F4F14
:100920005F4FE0E0F0E02030A0E03A07A0E04A07A7
:10093000A0E45A0710F0E1E0F0E079018A0127C055
:100940006038710564F5FB01E158FF4FD801C7011C
:100950008F779070A070B07080349105A105B105BB
:1009600039F4E7FE0DC080E490E0A0E0B0E004C000
:100970008FE390E0A0E0B0E0E80EF91E0A1F1B1F15
:1009800017FF05C016950795F794E794319687E011
:1009900016950795F794E7948A95D1F705C0EE244C
:1009A000FF248701EFEFF0E06E2F679566276795CC
:1009B000902F9F77D794DD24D7948E2F8695492F3B
:1009C000462B582F5D29B701CA011F910F91FF9047
:1009D000EF90DF900895FC01DB014081518122817D
:1009E000622F6F7770E0221F2227221F9381892FA9
:1009F000880F822B282F30E0991F9927991F119675
:100A00009C93119721153105A9F5411551056105F3
:100A1000710511F482E037C082E89FEF13969C9332
:100A20008E9312979A01AB0167E0220F331F441F88
:100A3000551F6A95D1F783E08C930DC0220F331FA9
:100A4000441F551F12968D919C91139701971396F1
:100A50009C938E931297203080E0380780E04807FF
:100A600080E4580758F314962D933D934D935C936F
:100A7000179708952F3F310579F441155105610508
:100A8000710519F484E08C93089564FF03C081E03C
:100A90008C9312C01C9210C02F57304013963C9379
:100AA0002E93129783E08C9387E0440F551F661FA7
:100AB000771F8A95D1F7706414964D935D936D936B
:100AC0007C93179708951F93DC01FB019C91923052
:100AD00008F447C08081823008F443C0943051F458
:100AE00011961C91843099F58181682F70E0611B0B
:100AF00071093FC0843021F0923031F48230B9F175
:100B00008181882389F12DC011961C911197823023
:100B1000F1F081811817D9F412962D913C91139719
:100B2000828193818217930794F028173907BCF0CC
:100B300014968D919D910D90BC91A02D24813581AD
:100B400046815781281739074A075B0718F4112394
:100B500041F00AC082179307A407B50740F4112398
:100B600019F061E070E005C06FEF7FEF02C060E058
:100B700070E0CB011F910895E091A101F091A201D5
:100B80001082E091A301F091A4011082E091A501EF
:100B9000F091A6011082E091A701F091A8011082C6
:100BA0000895DA01683010F080E00895E82FF0E051
:100BB000EE0FFF1FE755FE4F0190F081E02D808181
:100BC00090E002C0959587956A95E2F781708C93C5
:100BD00081E00895683078F5442319F0413059F5E3
:100BE00015C0E82FF0E0EE0FFF1FE756FE4F019013
:100BF000F081E02D208181E090E002C0880F991FF4
:100C00006A95E2F780958223808313C0E82FF0E095
:100C1000EE0FFF1FE756FE4F0190F081E02D20817F
:100C200081E090E002C0880F991F6A95E2F7282BB7
:100C3000208381E0089580E00895683078F54423AA
:100C400019F0413059F515C0E82FF0E0EE0FFF1F05
:100C5000EF55FE4F0190F081E02D208181E090E082
:100C600002C0880F991F6A95E2F7809582238083DE
:100C700013C0E82FF0E0EE0FFF1FEF55FE4F01907D
:100C8000F081E02D208181E090E002C0880F991F63
:100C90006A95E2F7282B208381E0089580E008958B
:100CA000DA01683010F080E00895E82FF0E0EE0FF0
:100CB000FF1FEF55FE4F0190F081E02D808190E005
:100CC00002C0959587956A95E2F781708C9381E0D3
:100CD0000895DB01E82FF0E0EE0FFF1FE755FE4F10
:100CE0000190F081E02D80818C9381E00895E82FC0
:100CF000F0E0EE0FFF1FE756FE4F0190F081E02D70
:100D0000608381E00895E82FF0E0EE0FFF1FEF55BC
:100D1000FE4F0190F081E02D608381E00895DB01BA
:100D2000E82FF0E0EE0FFF1FEF55FE4F0190F0812E
:100D3000E02D80818C9381E0089581E063E041E0C3
:100D40000E94EA0584ED90E30197F1F781E063E00A
:100D500040E00E94EA0508951F93182F81E061E0AA
:100D600041E00E94EA0581E062E040E00E94EA057D
:100D70008BB3912F907F8F70982B9BBB0E949D0609
:100D800081E061E041E00E94EA0581E062E040E04C
:100D90000E94EA058BB31295107F8F70812B8BBB5D
:100DA0000E949D061F9108951F93182F81E061E016
:100DB00040E00E94EA0581E062E040E00E94EA052E
:100DC0008BB3912F907F8F70982B9BBB0E949D06B9
:100DD00081E061E040E00E94EA0581E062E040E0FD
:100DE0000E94EA058BB31295107F8F70812B8BBB0D
:100DF0000E949D061F910895882339F4603168F49C
:100E0000862F80580E94D4060895813031F46031D5
:100E100020F4862F80540E94D40608950F931F93C8
:100E2000CF93DF938C01C0E0D0E01AC021960E94DE
:100E3000AC06C031D10529F481E060E00E94FC06D7
:100E40000DC0CE018097029748F481E00E94D4063D
:100E500080E060E00E94FC06C0E0D0E00F5F1F4F22
:100E6000F8018081882311F7DF91CF911F910F91B5
:100E700008958F929F92AF92BF92CF92DF92EF929E
:100E8000FF920F931F93DF93CF93CDB7DEB7609799
:100E90000FB6F894DEBF0FBECDBF7B018C0120E002
:100EA00030E040E050E00E94E50288235CF490E6E8
:100EB000892E90E0992E57016801D7FAD094D7F87F
:100EC000D09406C05701680182E6882E80E0982EF3
:100ED000C601B5010E9473032DB73EB72A503040BA
:100EE0000FB6F8943EBF0FBE2DBF0DB71EB70F5FF4
:100EF0001F4F7E010894E11CF11CEDB7FEB7F28292
:100F0000E18223E630E0F8013383228395828482F4
:100F100077836683882777FD8095982F0E94150335
:100F20009B01AC01C601B5010E948D0120E030E4B7
:100F30004CE156E40E94EB010E947303F8017187B3
:100F400060870E94A9082DB73EB7265F3F4F0FB6B6
:100F5000F8943EBF0FBE2DBFC7010E940E076096DA
:100F60000FB6F894DEBF0FBECDBFCF91DF911F91BA
:100F70000F91FF90EF90DF90CF90BF90AF909F9038
:100F80008F9008950F931F93DF93CF93CDB7DEB764
:100F900027970FB6F894DEBF0FBECDBF8E010F5F4F
:100FA0001F4FB8014AE050E00E948808C8010E9423
:100FB0000E0727960FB6F894DEBF0FBECDBFCF91B8
:100FC000DF911F910F91089588E893E10197F1F760
:100FD00087B38E6087BB88B3817F88BB8FEF8ABB66
:100FE00086EA9EE00197F1F781E00E94D40682E054
:100FF0000E94D40688E20E94D40686E00E94D406AD
:1010000080E80E94D4068CE00E94D40608950F93D5
:101010001F93CF93DF930E94E407C1E0D0E009E182
:1010200010E08DE690E00E940E0781E060E00E94F3
:10103000FC0680E197E2F8013197F1F70197D9F7C3
:1010400081E00E94D40680EC0E94D40682E890E001
:101050000E940E0780E197E2F8013197F1F70197BE
:10106000D9F781E00E94D40617C0BE01882777FD1A
:101070008095982F0E94150320E030E040E05FE368
:101080000E94BE010E94390788E893E1F801319778
:10109000F1F70197D9F72196C132D1050CF0C1CFF4
:1010A000E4CF2F923F924F925F926F927F928F92F6
:1010B0009F92AF92BF92CF92DF92EF92FF920F93E7
:1010C0001F93CF93DF93CDB7DEB7CA1BDB0B0FB6F1
:1010D000F894DEBF0FBECDBF09942A8839884888AE
:1010E0005F846E847D848C849B84AA84B984C88444
:1010F000DF80EE80FD800C811B81AA81B981CE0F3B
:10110000D11D0FB6F894DEBF0FBECDBFED0108951F
:10111000FB019F01E8944230C4F04532B4F44A30F8
:1011200029F497FB1EF4909581959F4F642F7727A4
:101130000E945A0B805D8A330CF0895D8193CB014C
:101140000097A1F716F45DE251931082C9010C9447
:10115000C00AAEE0B0E0EFEAF8E00C945F080D8959
:101160001E8986E08C831A8309838FEF9FE79E8315
:101170008D839E01275E3F4FCE0101966F89788D4A
:10118000A9010E94CD082F813885020F131FF80195
:1011900010822E96E4E00C947B08ABE0B0E0E3ED27
:1011A000F8E00C9451083C012B015A01FC01178214
:1011B0001682838181FD03C06FEF7FEFC6C19AE085
:1011C000892E1E010894211C311CF3012381F20198
:1011D00023FD859123FF81912F01882309F4B2C15A
:1011E000853239F423FD859123FF81912F018532CA
:1011F00029F490E0B3010E94D00AE7CF982FFF2492
:10120000EE249924FFE1FF15D0F09B3269F09C3267
:1012100028F4903259F0933291F40EC09D3249F087
:10122000903369F441E024C052E0F52A84E0F82AC2
:1012300028C098E0F92A25C0E0E1FE2A22C0F7FC88
:1012400029C0892F80538A3070F4F6FE05C0989C1F
:10125000902C1124980E15C0E89CE02C1124E80E67
:10126000F0E2FF2A0EC09E3229F4F6FC6BC140E486
:10127000F42A07C09C3619F450E8F52A02C09836C3
:1012800049F4F20123FD959123FF91912F019923B8
:1012900009F0B8CF892F8554833018F080528330FD
:1012A00038F444E050E0A40EB51E5FE359830FC04C
:1012B000933631F0933779F0933509F056C020C05A
:1012C000F5018081898342E050E0A40EB51E6101E2
:1012D00001E010E012C0F501C080D180F6FC03C02F
:1012E0006FEF7FEF02C0692D70E042E050E0A40E86
:1012F000B51EC6010E94B50A8C015FE7F52214C035
:10130000F501C080D180F6FC03C06FEF7FEF02C013
:10131000692D70E042E050E0A40EB51EC6010E94A7
:10132000AA0A8C0150E8F52AF3FE07C01AC080E231
:1013300090E0B3010E94D00AEA948E2D90E0081745
:101340001907A8F30EC0F601F7FC8591F7FE81910D
:101350006F0190E0B3010E94D00AE110EA940150BD
:1013600010400115110579F7EAC0943611F099364D
:1013700069F5F7FE08C0F501208131814281538172
:1013800084E090E00AC0F501808191819C014427AE
:1013900037FD4095542F82E090E0A80EB91E9FE6DD
:1013A000F92257FF09C050954095309521953F4F40
:1013B0004F4F5F4FE0E8FE2ACA01B901A1012AE0C0
:1013C00030E00E94FC0AD82ED21840C0953729F48C
:1013D0001F2D1F7E2AE030E01DC01F2D197F9F3674
:1013E00061F0903720F4983509F0ACC00FC0903709
:1013F00039F0983709F0A6C004C028E030E00AC0F0
:10140000106114FD146020E130E004C014FD16608A
:1014100020E132E017FF08C0F5016081718182810F
:10142000938144E050E008C0F50180819181BC01C6
:1014300080E090E042E050E0A40EB51EA1010E94C1
:10144000FC0AD82ED2188FE7F82EF122F6FE0BC038
:101450005EEFF522D91438F4F4FE07C0F2FC05C0A3
:101460008FEEF82202C01D2D01C0192DF4FE0DC013
:10147000FE01ED0DF11D8081803319F499EEF92202
:1014800008C01F5FF2FE05C003C08F2D867809F0EB
:101490001F5F0F2DF3FC14C0F0FE0FC01E1510F0DF
:1014A0009D2C0BC09D2C9E0C911A1E2D06C080E217
:1014B00090E0B3010E94D00A1F5F1E15C0F304C064
:1014C0001E1510F4E11A01C0EE2404FF0FC080E3E2
:1014D00090E0B3010E94D00A02FF1DC001FD03C0CD
:1014E00088E790E00EC088E590E00BC0802F8678FA
:1014F00091F001FF02C08BE201C080E2F7FC8DE2B7
:1015000090E0B3010E94D00A06C080E390E0B301EE
:101510000E94D00A9A94D914C0F3DA94F101ED0D27
:10152000F11D808190E0B3010E94D00ADD20A9F76F
:1015300006C080E290E0B3010E94D00AEA94EE2057
:10154000C1F743CEF30166817781CB012B96E2E1AF
:101550000C946D08FC010590615070400110D8F7A3
:10156000809590958E0F9F1F0895FC0161507040EB
:1015700001900110D8F7809590958E0F9F1F0895C8
:10158000DC01FC01672F71917723E1F7329704C0EA
:101590007C916D9370836291AE17BF07C8F3089575
:1015A0000F931F93CF93DF938C01EB018B8181FF0E
:1015B0001BC082FF0DC02E813F818C819D81281729
:1015C000390764F4E881F9810193F983E88306C05F
:1015D000E885F985802F0995892B31F48E819F81CB
:1015E00001969F838E8302C00FEF1FEFC801DF912A
:1015F000CF911F910F910895FA01AA27283051F138
:10160000203181F1E8946F936E7F6E5F7F4F8F4F33
:101610009F4FAF4FB1E03ED0B4E03CD0670F781F92
:10162000891F9A1FA11D680F791F8A1F911DA11D77
:101630006A0F711D811D911DA11D20D009F46894B0
:101640003F912AE0269F11243019305D3193DEF658
:10165000CF010895462F4770405D4193B3E00FD00E
:10166000C9F7F6CF462F4F70405D4A3318F0495DF9
:1016700031FD4052419302D0A9F7EACFB4E0A695DC
:101680009795879577956795BA95C9F700976105FE
:10169000710508959B01AC010A2E06945795479554
:1016A00037952795BA95C9F7620F731F841F951F49
:1016B000A01D0895AA1BBB1B51E107C0AA1FBB1F99
:1016C000A617B70710F0A61BB70B881F991F5A95CE
:1016D000A9F780959095BC01CD010895F894FFCFAE
:1016E0002D0000257325642E25303164004D4F48B0
:1016F0004D414420534C45454D20425937594B4F9D
:101700004D004D41484D4F44205341464552203AEB
:1017100000000000000000000000010202030303BB
:101720000304040404040404040505050505050573
:101730000505050505050505050606060606060652
:101740000606060606060606060606060606060639
:101750000606060606060606060707070707070722
:101760000707070707070707070707070707070709
:1017700007070707070707070707070707070707F9
:1017800007070707070707070707070707070707E9
:1017900007070707070707070708080808080808D2
:1017A00008080808080808080808080808080808B9
:1017B00008080808080808080808080808080808A9
:1017C0000808080808080808080808080808080899
:1017D0000808080808080808080808080808080889
:1017E0000808080808080808080808080808080879
:1017F0000808080808080808080808080808080869
:101800000808080808080808080808080808080858
:101810000808080808080808083B003800350032A6
:10182000003A003700340031003900360033003010
:021830000000B6
:00000001FF
